{
  "contractName": "Adoption",
  "abi": [
    {
      "constant": true,
      "inputs": [
        {
          "name": "",
          "type": "uint256"
        }
      ],
      "name": "adopters",
      "outputs": [
        {
          "name": "",
          "type": "address"
        }
      ],
      "payable": false,
      "stateMutability": "view",
      "type": "function",
      "signature": "0x43ae80d3"
    },
    {
      "constant": true,
      "inputs": [],
      "name": "owner",
      "outputs": [
        {
          "name": "",
          "type": "address"
        }
      ],
      "payable": false,
      "stateMutability": "view",
      "type": "function",
      "signature": "0x8da5cb5b"
    },
    {
      "inputs": [],
      "payable": false,
      "stateMutability": "nonpayable",
      "type": "constructor",
      "signature": "constructor"
    },
    {
      "constant": false,
      "inputs": [
        {
          "name": "_petId",
          "type": "uint256"
        }
      ],
      "name": "adoptPet",
      "outputs": [
        {
          "name": "",
          "type": "uint256"
        }
      ],
      "payable": false,
      "stateMutability": "nonpayable",
      "type": "function",
      "signature": "0x19b81577"
    },
    {
      "constant": true,
      "inputs": [],
      "name": "getAdopters",
      "outputs": [
        {
          "name": "",
          "type": "address[16]"
        }
      ],
      "payable": false,
      "stateMutability": "view",
      "type": "function",
      "signature": "0x3de4eb17"
    }
  ],
  "bytecode": "0x608060405234801561001057600080fd5b5033601060006101000a81548173ffffffffffffffffffffffffffffffffffffffff021916908373ffffffffffffffffffffffffffffffffffffffff16021790555061037c806100616000396000f3fe608060405260043610610062576000357c0100000000000000000000000000000000000000000000000000000000900463ffffffff16806319b81577146100675780633de4eb17146100b657806343ae80d3146101095780638da5cb5b14610184575b600080fd5b34801561007357600080fd5b506100a06004803603602081101561008a57600080fd5b81019080803590602001909291905050506101db565b6040518082815260200191505060405180910390f35b3480156100c257600080fd5b506100cb610250565b6040518082601060200280838360005b838110156100f65780820151818401526020810190506100db565b5050505090500191505060405180910390f35b34801561011557600080fd5b506101426004803603602081101561012c57600080fd5b81019080803590602001909291905050506102d1565b604051808273ffffffffffffffffffffffffffffffffffffffff1673ffffffffffffffffffffffffffffffffffffffff16815260200191505060405180910390f35b34801561019057600080fd5b50610199610306565b604051808273ffffffffffffffffffffffffffffffffffffffff1673ffffffffffffffffffffffffffffffffffffffff16815260200191505060405180910390f35b60008082101580156101ee5750600f8211155b15156101f957600080fd5b3360008360108110151561020957fe5b0160006101000a81548173ffffffffffffffffffffffffffffffffffffffff021916908373ffffffffffffffffffffffffffffffffffffffff160217905550819050919050565b61025861032c565b60006010806020026040519081016040528092919082601080156102c7576020028201915b8160009054906101000a900473ffffffffffffffffffffffffffffffffffffffff1673ffffffffffffffffffffffffffffffffffffffff168152602001906001019080831161027d575b5050505050905090565b6000816010811015156102e057fe5b016000915054906101000a900473ffffffffffffffffffffffffffffffffffffffff1681565b601060009054906101000a900473ffffffffffffffffffffffffffffffffffffffff1681565b6102006040519081016040528060109060208202803883398082019150509050509056fea165627a7a72305820f7af7923ce2891535d57c8c16a2287174cb1cc35bbeccfb4a0f3f51a116d6db20029",
  "source": "pragma solidity ^0.5.0;\n\ncontract Adoption{\n\n    address[16] public adopters;\n    address public owner;\n\n   constructor()public{\n       owner = msg.sender;\n   }\n\n   function adoptPet(uint _petId) public returns (uint){\n       require(_petId >=0 && _petId<= 15);\n        adopters[_petId] =msg.sender;\n        return _petId;\n   }\n\n   function getAdopters() public view returns(address[16] memory){\n       return adopters;\n   }\n\n}",
  "sourcePath": "/home/medha/Desktop/Dapps/PetShop/contracts/Adoption.sol",
  "compiler": {
    "name": "solc",
    "version": "0.5.0+commit.1d4f565a.Emscripten.clang"
  },
  "schemaVersion": "3.0.8",
  "updatedAt": "2019-04-30T17:51:53.362Z",
  "devdoc": {
    "methods": {}
  },
  "userdoc": {
    "methods": {}
  }
}